:1000000009C016C01DC014C013C012C011C010C05A
:100010000FC00EC011241FBECFE9CDBF20E0A0E667
:10002000B0E001C01D92A336B207E1F7B9D0C9C054
:10003000E7CF89E190E0019711F00000FCCF08952F
:10004000909161009093620086B383708093610009
:10005000933029F5823081F4809160009FEF980FF2
:100060009D3F1CF09093600098C08D5F809360006E
:10007000C498DFDFC49A38C0813009F08EC0809107
:10008000600091E0980F94301CF49093600085C05C
:10009000835080936000C398CCDFC39A25C083301F
:1000A00019F5913081F4809160009FEF980F9D3F8A
:1000B0001CF09093600071C08D5F80936000C498C5
:1000C000B8DFC49A11C0923079F48091600091E059
:1000D000980F94301CF4909360005FC0835080931D
:1000E0006000C398A6DFC39A80916200811126C088
:1000F00080916100823081F48091600091E0980FDE
:1001000094301CF49093600046C08350809360004C
:10011000C3988FDFC39A39C08130B9F580916000F0
:100120009FEF980F9D3F1CF09093600034C08D5F4F
:1001300080936000C4987DDFC49A27C090916100CD
:10014000911123C0813081F48091600091E0980F7B
:1001500094301CF4909360001EC083508093600024
:10016000C39867DFC39A11C08230A9F48091600000
:100170009FEF980F9D3F1CF0909360000CC08D5F27
:1001800080936000C49855DFC49A809161008330E9
:1001900011F410926000189503C080916200CECFD8
:1001A00088E187BB8BE188BB80E28BBF83E085BBA6
:1001B00080E888B9379885B7806385BF789488953B
:0601C000FECFF894FFCF12
:00000001FF
